:020000040800F2
:1000000000500020190600089D040008A304000801
:10001000A9040008AF040008B504000800000000AF
:10002000000000000000000000000000BB04000809
:10003000C704000800000000D3040008DF04000823
:1000400061060008610600086106000861060008F4
:1000500061060008610600086106000861060008E4
:1000600061060008610600086106000861060008D4
:1000700061060008610600086106000861060008C4
:1000800061060008610600086106000861060008B4
:10009000ED0400086106000861060008610600081A
:1000A0006106000861060008610600086106000894
:1000B0006106000861060008610600086106000884
:1000C0006106000861060008610600086106000874
:1000D0006106000861060008610600086106000864
:1000E00061060008610600086106000800000000C3
:1000F0000000000000000000000000000000000000
:0C01000000000000000000005FF808F1A3
:10010C0010B5054C237833B9044B13B10448AFF345
:10011C0000800123237010BD1C050020000000008E
:10012C00F061000808B5034B1BB103490348AFF35A
:10013C00008008BD0000000020050020F0610008D0
:10014C0080B500AF00F088FA00F009F800F0ACF8C8
:10015C0000F04AF800F07EF803F076F9FEE780B57F
:10016C0090B000AF07F1180328220021184604F0C4
:10017C00CBFF3B1D00221A605A609A60DA601A614C
:10018C000123BB614FF48033FB6100233B620123ED
:10019C00BB6202237B634FF48033BB634FF4E013E9
:1001AC00FB6307F11803184601F0B8FB0346002B5C
:1001BC0001D000F0B1F80F237B600223BB60002359
:1001CC00FB604FF480633B6100237B613B1D02218C
:1001DC00184601F025FE0346002B01D000F09CF8D8
:1001EC0000BF4037BD4680BD80B500AF174B184AE5
:1001FC001A60164B08225A60144B00229A60134B5B
:10020C000022DA60114B4FF460221A610F4B4FF44D
:10021C0080125A610D4B00221A760C4B01225A7631
:10022C000A4B00229A76094B0122DA76074B002200
:10023C001A77064B00225A77044800F093FA0346CB
:10024C00002B01D000F068F800BF80BD38050020FD
:10025C000064004080B500AF114B124A1A60104B7D
:10026C004FF4E1325A600E4B00229A600C4B002284
:10027C00DA600B4B00221A61094B0C225A61084BB5
:10028C0000229A61064B0022DA61054801F056FF04
:10029C000346002B01D000F03FF800BF80BD00BF2B
:1002AC00600500200038014080B483B000AF0E4BD5
:1002BC009B690D4A43F0200393610B4B9B6903F040
:1002CC0020037B607B68084B9B69074A43F004035F
:1002DC009361054B9B6903F004033B603B6800BFD3
:1002EC000C37BD4680BC70470010024080B584B00E
:1002FC0000AFF860B9607A607B689AB24FF0FF3358
:10030C00B968044801F072FF7B6818461037BD4687
:10031C0080BD00BF6005002080B400AF72B600BF86
:10032C00FEE7000080B483B000AF0E4B9B690D4A12
:10033C0043F0010393610B4B9B6903F001037B605A
:10034C007B68084BDB69074A43F08053D361054B4C
:10035C00DB6903F080533B603B6800BF0C37BD4644
:10036C0080BC70470010024080B588B000AF786048
:10037C0007F1100300221A605A609A60DA607B68F9
:10038C001B68204A934239D11F4BDB691E4A43F04C
:10039C000073D3611C4BDB6903F00073FB60FB68DB
:1003AC00194B9B69184A43F004039361164B9B69E4
:1003BC0003F00403BB60BB684FF400633B61002394
:1003CC007B610023BB6107F1100319460F4801F054
:1003DC0021F94FF480533B6102237B610323FB61C2
:1003EC0007F110031946094801F014F90022012104
:1003FC00142001F0D8F8142001F0F1F800BF2037D8
:10040C00BD4680BD00640040001002400008014061
:10041C0080B588B000AF786007F1100300221A6035
:10042C005A609A60DA607B681B68164A934224D142
:10043C00154B9B69144A43F480439361124B9B699F
:10044C0003F48043FB60FB680F4B9B690E4A43F03F
:10045C00040393610C4B9B6903F00403BB60BB6802
:10046C004FF400733B6112237B610323FB6107F1A3
:10047C0010031946054801F0CDF800BF2037BD46E2
:10048C0080BD00BF00380140001002400008014050
:10049C0080B400AFFEE780B400AFFEE780B400AFDD
:1004AC00FEE780B400AFFEE780B400AFFEE780B497
:1004BC0000AF00BFBD4680BC704780B400AF00BF2A
:1004CC00BD4680BC704780B400AF00BFBD4680BC49
:1004DC00704780B500AF00F005F900BF80BD00008B
:1004EC0080B500AF02F0FCFE024800F058FD00BFE2
:1004FC0080BD00BF3805002080B586B000AFF86025
:10050C00B9607A6000237B610AE0AFF3008001469A
:10051C00BB685A1CBA60CAB21A707B6901337B6122
:10052C007A697B689A42F0DB7B6818461837BD46BF
:10053C0080BD80B483B000AF78604FF0FF331846B5
:10054C000C37BD4680BC704780B483B000AF786078
:10055C0039603B684FF400525A60002318460C3740
:10056C00BD4680BC704780B483B000AF7860012377
:10057C0018460C37BD4680BC704780B485B000AFC0
:10058C00F860B9607A60002318461437BD4680BC09
:10059C007047000080B586B000AF7860144A154BE8
:1005AC00D31A7B617B693B61134B1B68002B02D117
:1005BC00114B124A1A60104B1A687B6813443A6943
:1005CC009A4207D204F058FD03460C221A604FF0F1
:1005DC00FF3309E0084B1B68FB60074B1A687B680C
:1005EC001344054A1360FB6818461837BD4680BD96
:1005FC000050002000040000A805002098320020C4
:10060C0080B400AF00BFBD4680BC7047FFF7F8FF59
:10061C000B480C490C4A002302E0D458C450043354
:10062C00C4188C42F9D3094A094C002301E0136029
:10063C000432A242FBD304F025FDFFF781FD704785
:10064C00000000201C0500201C6500081C05002073
:10065C0094320020FEE7000080B500AF084B1B6809
:10066C00074A43F010031360032000F091FF0020B1
:10067C0000F008F8FFF756FE0023184680BD00BFB7
:10068C000020024080B582B000AF7860124B1A682F
:10069C00124B1B7819464FF47A73B3FBF1F3B2FB90
:1006AC00F3F3184600F0A9FF0346002B01D00123F9
:1006BC000EE07B680F2B0AD8002279684FF0FF30D0
:1006CC0000F071FF064A7B681360002300E00123F1
:1006DC0018460837BD4680BD0000002008000020E9
:1006EC000400002080B400AF054B1B781A46054B64
:1006FC001B681344034A136000BFBD4680BC70479F
:10070C0008000020AC05002080B400AF024B1B6831
:10071C001846BD4680BC7047AC05002080B584B03F
:10072C0000AF7860FFF7F0FFB8607B68FB60FB6898
:10073C00B3F1FF3F05D00A4B1B781A46FB681344F4
:10074C00FB6000BFFFF7E0FF0246BB68D31AFA68F4
:10075C009A42F7D800BF00BF1037BD4680BD00BF1E
:10076C000800002080B584B000AF78607B68002B57
:10077C0001D10123EDE07B6893F82030DBB2002B34
:10078C0002D17868FFF7F0FD7B681B681A687B68FC
:10079C001B6842F001021A60FFF7B6FFF86012E026
:1007AC00FFF7B2FF0246FB68D31A0A2B0BD97B6802
:1007BC005B6A43F400327B685A627B68052283F8DB
:1007CC0020200123C5E07B681B685B6803F00103F4
:1007DC00002BE5D07B681B681A687B681B6822F0CD
:1007EC0002021A60FFF790FFF86012E0FFF78CFF2F
:1007FC000246FB68D31A0A2B0BD97B685B6A43F45D
:10080C0000327B685A627B68052283F82020012322
:10081C009FE07B681B685B6803F00203002BE5D14B
:10082C007B681B7E012B08D17B681B681A687B6870
:10083C001B6842F080021A6007E07B681B681A682C
:10084C007B681B6822F080021A607B685B7E012B40
:10085C0008D17B681B681A687B681B6842F04002F1
:10086C001A6007E07B681B681A687B681B6822F0BB
:10087C0040021A607B689B7E012B08D17B681B6849
:10088C001A687B681B6842F020021A6007E07B68DC
:10089C001B681A687B681B6822F020021A607B6850
:1008AC00DB7E012B08D17B681B681A687B681B6890
:1008BC0022F010021A6007E07B681B681A687B68DC
:1008CC001B6842F010021A607B681B7F012B08D159
:1008DC007B681B681A687B681B6842F008021A6008
:1008EC0007E07B681B681A687B681B6822F00802AB
:1008FC001A607B685B7F012B08D17B681B681A68C8
:10090C007B681B6842F004021A6007E07B681B6876
:10091C001A687B681B6822F004021A607B689A686C
:10092C007B68DB681A437B681B691A437B685B69CD
:10093C0042EA03017B685B685A1E7B681B680A43AA
:10094C00DA617B6800225A627B68012283F82020DE
:10095C00002318461037BD4680BD80B487B000AF69
:10096C00786039607B681B687B617B6893F820300A
:10097C00FB74FB7C012B03D0FB7C022B40F0AA8088
:10098C007B69D3F8003243F001027B69C3F8002283
:10099C003B685B6903F01F03012202FA03F3FB605F
:1009AC007B69D3F81C22FB68DB431A407B69C3F8D4
:1009BC001C223B68DB69002B23D17B69D3F80C220A
:1009CC00FB68DB431A407B69C3F80C223B68DB688D
:1009DC0019043B685B689BB23A68526919437B699E
:1009EC00483243F832103B689B6819043B681B681B
:1009FC009AB23B685B690A4379694833DB000B4464
:100A0C005A603B68DB69012B22D17B69D3F80C223D
:100A1C00FB681A437B69C3F80C223B681B681904FA
:100A2C003B685B689BB23A68526919437B694832F0
:100A3C0043F832103B689B6819043B68DB689AB238
:100A4C003B685B690A4379694833DB000B445A60A5
:100A5C003B689B69002B09D17B69D3F80422FB68A6
:100A6C00DB431A407B69C3F8042207E07B69D3F8A7
:100A7C000422FB681A437B69C3F804223B681B6998
:100A8C00002B09D17B69D3F81422FB68DB431A4095
:100A9C007B69C3F8142207E07B69D3F81422FB6846
:100AAC001A437B69C3F814223B681B6A012B07D1DC
:100ABC007B69D3F81C22FB681A437B69C3F81C22A0
:100ACC007B69D3F8003223F001027B69C3F8002262
:100ADC00002306E07B685B6A43F480227B685A62E1
:100AEC00012318461C37BD4680BC704780B584B0C6
:100AFC0000AF78607B6893F82030DBB2012B2ED1ED
:100B0C007B68022283F820207B681B681A687B684C
:100B1C001B6822F001021A60FFF7F6FDF86012E084
:100B2C00FFF7F2FD0246FB68D31A0A2B0BD97B6840
:100B3C005B6A43F400327B685A627B68052283F857
:100B4C002020012312E07B681B685B6803F0010323
:100B5C00002BE5D17B6800225A62002306E07B68FB
:100B6C005B6A43F400227B685A62012318461037F3
:100B7C00BD4680BD80B489B000AFF860B9607A60C2
:100B8C003B60FB6893F82030FB77FB681B689B6825
:100B9C00BB61FB7F012B03D0FB7F022B40F0AD80B0
:100BAC00BB6903F08063002B0AD1BB6903F00063BF
:100BBC00002B05D1BB6903F08053002B00F095800E
:100BCC00BB691B0E03F003037B6101227B699A4016
:100BDC003B681A60BB689B68002B0DD1BB681B6817
:100BEC005A05BB68DB68F96809681A437B691833D6
:100BFC001B010B441A600FE0BB685B68DA00BB6832
:100C0C009B681A43BB68DB68F96809681A437B69FF
:100C1C0018331B010B441A60FB681968BB681A690E
:100C2C007B6918331B010B4404331A60BB681B7DB2
:100C3C00012B11D1FB681A687B6918331B01134413
:100C4C0004331B68FA68116843F480727B691833AB
:100C5C001B010B4404331A607B6807331B781A069C
:100C6C007B6806331B781B041A437B6805331B789F
:100C7C001B0213437A68043212781046FA68116822
:100C8C0043EA00027B691B010B4403F5C6731A602F
:100C9C007B6803331B781A067B6802331B781B04B2
:100CAC001A437B6801331B781B0213437A68127852
:100CBC001046FA68116843EA00027B691B010B4479
:100CCC0003F5C4731A60FB681A687B6918331B013F
:100CDC0013441B68FA68116843F001027B691833EE
:100CEC001B010B441A6000230EE0FB685B6A43F4A3
:100CFC000012FB685A62012306E0FB685B6A43F44E
:100D0C008022FB685A62012318462437BD4680BCFA
:100D1C00704780B487B000AFF860B9607A603B6010
:100D2C00FB6893F82030FB75FB7D012B03D0FB7D1A
:100D3C00022B40F00381BB68002B0ED1FB681B68B3
:100D4C00DB6803F00303002B16D1FB685B6A43F4EA
:100D5C000012FB685A620123F7E0FB681B681B69F1
:100D6C0003F00303002B07D1FB685B6A43F400120A
:100D7C00FB685A620123E8E0FB681A68BB681B3306
:100D8C001B0113441B6803F004027B689A607B68A8
:100D9C009B68002B0CD1FB681A68BB681B331B01CA
:100DAC0013441B685B0DC3F30A027B681A600BE0EB
:100DBC00FB681A68BB681B331B0113441B68DB08F8
:100DCC0023F060427B685A60FB681A68BB681B336F
:100DDC001B0113441B6803F002027B68DA60FB689A
:100DEC001A68BB681B331B01134404331B6803F0E4
:100DFC000803002B03D07B6808221A610BE0FB6808
:100E0C001A68BB681B331B01134404331B6803F0C3
:100E1C000F027B681A61FB681A68BB681B331B01E5
:100E2C00134404331B681B0ADAB27B689A61FB68B3
:100E3C001A68BB681B331B01134404331B681B0C5F
:100E4C009AB27B685A61FB681A68BB681B01134431
:100E5C0003F5DC731B68DAB23B681A70FB681A681E
:100E6C00BB681B01134403F5DC731B681A0A3B684F
:100E7C000133D2B21A70FB681A68BB681B011344A9
:100E8C0003F5DC731B681A0C3B680233D2B21A7080
:100E9C00FB681A68BB681B01134403F5DC731B6801
:100EAC001A0E3B680333D2B21A70FB681A68BB681F
:100EBC001B01134403F5DE731A683B680433D2B28A
:100ECC001A70FB681A68BB681B01134403F5DE73C8
:100EDC001B681A0A3B680533D2B21A70FB681A6891
:100EEC00BB681B01134403F5DE731B681A0C3B68CB
:100EFC000633D2B21A70FB681A68BB681B01134424
:100F0C0003F5DE731B681A0E3B680733D2B21A70F6
:100F1C00BB68002B08D1FB681B68DA68FB681B6890
:100F2C0042F02002DA6007E0FB681B681A69FB6874
:100F3C001B6842F020021A61002306E0FB685B6A22
:100F4C0043F48022FB685A62012318461C37BD46C5
:100F5C0080BC704780B485B000AF786039607B6826
:100F6C0093F82030FB73FB7B012B02D0FB7B022B15
:100F7C0009D17B681B6859697B681B683A680A430E
:100F8C005A61002306E07B685B6A43F480227B682D
:100F9C005A62012318461437BD4680BC704780B591
:100FAC008AB000AF786000237B627B681B685B694A
:100FBC003B627B681B685B68FB617B681B689B689A
:100FCC00BB617B681B68DB687B617B681B681B698A
:100FDC003B617B681B689B69FB603B6A03F0010308
:100FEC00002B7CD0BB6903F00103002B23D07B6862
:100FFC001B6801229A60BB6903F00203002B03D02B
:10100C00786800F083F916E0BB6903F00403002B49
:10101C0004D07B6A43F400637B620CE0BB6903F091
:10102C000803002B04D07B6A43F480537B6202E0FC
:10103C00786800F086F9BB6903F48073002B24D028
:10104C007B681B684FF480729A60BB6903F4007371
:10105C00002B03D0786800F062F916E0BB6903F44A
:10106C008063002B04D07B6A43F400537B620CE05A
:10107C00BB6903F40063002B04D07B6A43F4804308
:10108C007B6202E0786800F065F9BB6903F4803399
:10109C00002B24D07B681B684FF480329A60BB69AC
:1010AC0003F40033002B03D0786800F041F916E00C
:1010BC00BB6903F48023002B04D07B6A43F4004308
:1010CC007B620CE0BB6903F40023002B04D07B6A29
:1010DC0043F480337B6202E0786800F044F93B6AA9
:1010EC0003F00803002B0CD07B6903F01003002BDA
:1010FC0007D07B6A43F400737B627B681B68102209
:10110C00DA603B6A03F00403002B0BD07B6903F01D
:10111C000803002B06D07B681B680822DA6078680D
:10112C0000F033F93B6A03F00203002B09D07B6813
:10113C001B68DB6803F00303002B02D0786800F017
:10114C001BF93B6A03F04003002B0CD03B6903F006
:10115C001003002B07D07B6A43F480637B627B68AF
:10116C001B6810221A613B6A03F02003002B0BD082
:10117C003B6903F00803002B06D07B681B68082230
:10118C001A61786800F013F93B6A03F01003002B26
:10119C0009D07B681B681B6903F00303002B02D08A
:1011AC00786800F0FBF83B6A03F40033002B0BD09B
:1011BC00FB6903F01003002B06D07B681B68102220
:1011CC005A60786800F0FCF83B6A03F48033002B1B
:1011DC000BD0FB6903F00803002B06D07B681B685F
:1011EC0008225A60786800F0F4F83B6A03F4004374
:1011FC00002B7BD0FB6903F00403002B72D03B6AFD
:10120C0003F48073002B08D0FB6803F00103002B60
:10121C0003D07B6A43F001037B623B6A03F40073E7
:10122C00002B08D0FB6803F00203002B03D07B6A71
:10123C0043F002037B623B6A03F48063002B08D00B
:10124C00FB6803F00403002B03D07B6A43F0040318
:10125C007B623B6A03F40063002B43D0FB6803F012
:10126C007003002B3ED0FB6803F07003602B2BD077
:10127C00602B2ED8502B22D0502B2AD8402B19D093
:10128C00402B26D8302B10D0302B22D8102B02D04C
:10129C00202B05D01DE07B6A43F008037B6219E02C
:1012AC007B6A43F010037B6214E07B6A43F02003FB
:1012BC007B620FE07B6A43F040037B620AE07B6A4F
:1012CC0043F080037B6205E07B6A43F480737B62AE
:1012DC0000E000BF7B681B689A697B681B6822F082
:1012EC0070029A617B681B6804225A607B6A002B2F
:1012FC0008D07B685A6A7B6A1A437B685A627868A2
:10130C0000F070F800BF2837BD4680BD80B483B0B4
:10131C0000AF786000BF0C37BD4680BC704780B40E
:10132C0083B000AF786000BF0C37BD4680BC7047FF
:10133C0080B483B000AF786000BF0C37BD4680BC72
:10134C00704780B483B000AF786000BF0C37BD46E7
:10135C0080BC704780B483B000AF786000BF0C379E
:10136C00BD4680BC704780B483B000AF786000BFCE
:10137C000C37BD4680BC704780B483B000AF78603A
:10138C0000BF0C37BD4680BC704780B483B000AF43
:10139C00786000BF0C37BD4680BC704780B483B00A
:1013AC0000AF786000BF0C37BD4680BC704780B47E
:1013BC0083B000AF786000BF0C37BD4680BC70476F
:1013CC0080B483B000AF786000BF0C37BD4680BCE2
:1013DC00704780B483B000AF786000BF0C37BD4657
:1013EC0080BC704780B483B000AF786000BF0C370E
:1013FC00BD4680BC7047000080B485B000AF7860FB
:10140C007B6803F00703FB600C4BDB68BB60BA68BE
:10141C004FF6FF031340BB60FB681A02BB68134313
:10142C0043F0BF6343F40033BB60044ABB68D36032
:10143C0000BF1437BD4680BC704700BF00ED00E014
:10144C0080B400AF044BDB681B0A03F0070318469B
:10145C00BD4680BC704700BF00ED00E080B483B097
:10146C0000AF0346FB7197F90730002B0BDBFB79C0
:10147C0003F01F02064997F907305B09012000FAB7
:10148C0002F241F8232000BF0C37BD4680BC7047E8
:10149C0000E100E080B483B000AF03463960FB711B
:1014AC0097F90730002B0ADB3B68DAB20C4997F945
:1014BC0007301201D2B20B4483F800230AE03B68D8
:1014CC00DAB20849FB7903F00F03043B1201D2B2E4
:1014DC000B441A7600BF0C37BD4680BC704700BF6A
:1014EC0000E100E000ED00E080B489B000AFF860EE
:1014FC00B9607A60FB6803F00703FB61FB69C3F119
:10150C000703042B28BF0423BB61FB690433062BA0
:10151C0002D9FB69033B00E000237B614FF0FF32F3
:10152C00BB6902FA03F3DA43BB681A407B699A4041
:10153C004FF0FF317B6901FA03F3D9437B680B4011
:10154C00134318462437BD4680BC704780B582B023
:10155C0000AF78607B68013BB3F1807F01D301233E
:10156C000FE00A4A7B68013B53600F214FF0FF30BC
:10157C00FFF790FF054B00229A60044B07221A607C
:10158C00002318460837BD4680BD00BF10E000E0C0
:10159C0080B582B000AF78607868FFF72DFF00BF90
:1015AC000837BD4680BD80B586B000AF0346B96034
:1015BC007A60FB7300237B61FFF742FF78617A68E6
:1015CC00B9687869FFF790FF024697F90F3011461A
:1015DC001846FFF75FFF00BF1837BD4680BD80B5CA
:1015EC0082B000AF0346FB7197F907301846FFF73E
:1015FC0035FF00BF0837BD4680BD80B582B000AF57
:10160C0078607868FFF7A2FF034618460837BD4696
:10161C0080BD000080B48BB000AF786039600023CF
:10162C007B6200233B6269E101227B6A02FA03F3CD
:10163C00FB613B681B68FA691340BB61BA69FB69C3
:10164C009A4240F058813B685B689A4A93425ED05C
:10165C00984A934275D8984A934258D0964A9342E6
:10166C006FD8964A934252D0944A934269D8944A7E
:10167C0093424CD0924A934263D8924A934246D0BA
:10168C00904A93425DD8122B2AD8122B59D801A21A
:10169C0052F823F01B170008F5160008071700086E
:1016AC00491700084F1700084F1700084F1700087C
:1016BC004F1700084F1700084F1700084F17000866
:1016CC004F1700084F1700084F1700084F17000856
:1016DC004F1700084F170008FD16000811170008D7
:1016EC00794A934213D02CE03B68DB683B6229E0DB
:1016FC003B68DB6804333B6224E03B68DB680833FF
:10170C003B621FE03B68DB680C333B621AE03B68D2
:10171C009B68002B02D104233B6213E03B689B685F
:10172C00012B05D108233B627B68FA691A6109E039
:10173C0008233B627B68FA695A6103E000233B6231
:10174C0000E000BFBB69FF2B01D87B6801E07B6820
:10175C0004337B61BB69FF2B02D87B6A9B0002E0E0
:10176C007B6A083B9B003B617B691A680F213B69D4
:10177C0001FA03F3DB431A40396A3B6901FA03F3BC
:10178C001A437B691A603B685B6803F08053002B3B
:10179C0000F0B1804D4B9B694C4A43F001039361BF
:1017AC004A4B9B6903F00103BB60BB68484A7B6AE8
:1017BC009B08023352F82330FB607B6A03F003036F
:1017CC009B000F2202FA03F3DB43FA681340FB6021
:1017DC007B68404A934213D07B683F4A93420DD0BA
:1017EC007B683E4A934207D07B683D4A934201D1C5
:1017FC00032306E0042304E0022302E0012300E0BB
:10180C0000237A6A02F0030292009340FA681343B1
:10181C00FB602F497B6A9B080233FA6841F823204E
:10182C003B685B6803F48013002B06D02D4B9A6841
:10183C002C49BB6913438B6006E02A4B9A68BB6941
:10184C00DB43284913408B603B685B6803F400134F
:10185C00002B06D0234BDA682249BB691343CB60BB
:10186C0006E0204BDA68BB69DB431E491340CB60B2
:10187C003B685B6803F40033002B06D0194B5A68A5
:10188C001849BB6913434B6006E0164B5A68BB6999
:10189C00DB43144913404B603B685B6803F48033B3
:1018AC00002B21D00F4B1A680E49BB6913430B60F8
:1018BC0021E000BF000032100000311000002210A7
:1018CC000000211000001210000011100010024046
:1018DC000000014000080140000C014000100140D4
:1018EC0000140140000401400B4B1A68BB69DB4338
:1018FC00094913400B607B6A01337B623B681A68B1
:10190C007B6A22FA03F3002B7FF48EAE00BF00BF7C
:10191C002C37BD4680BC70470004014080B586B0B2
:10192C0000AF78607B68002B01D1012372E27B68E9
:10193C001B6803F00103002B00F08780924B5B685F
:10194C0003F00C03042B0CD08F4B5B6803F00C03DF
:10195C00082B12D18C4B5B6803F48033B3F5803FBA
:10196C000BD1894B1B6803F40033002B6CD07B68C4
:10197C005B68002B68D101234CE27B685B68B3F594
:10198C00803F06D1804B1B687F4A43F48033136041
:10199C002EE07B685B68002B0CD17B4B1B687A4A72
:1019AC0023F480331360784B1B68774A23F480232D
:1019BC0013601DE07B685B68B3F5A02F0CD1724BF4
:1019CC001B68714A43F4802313606F4B1B686E4A8B
:1019DC0043F4803313600BE06B4B1B686A4A23F4AF
:1019EC0080331360684B1B68674A23F480231360B1
:1019FC007B685B68002B13D0FEF786FE386108E02D
:101A0C00FEF782FE02463B69D31A642B01D90323ED
:101A1C0000E25D4B1B6803F40033002BF0D014E0A4
:101A2C00FEF772FE386108E0FEF76EFE02463B6977
:101A3C00D31A642B01D90323ECE1534B1B6803F439
:101A4C000033002BF0D100E000BF7B681B6803F073
:101A5C000203002B63D04C4B5B6803F00C03002B90
:101A6C000BD0494B5B6803F00C03082B1CD1464B85
:101A7C005B6803F48033002B16D1434B1B6803F0D7
:101A8C000203002B05D07B681B69012B01D00123BD
:101A9C00C0E13D4B1B6823F0F8027B685B69DB00FF
:101AAC00394913430B603AE07B681B69002B20D04B
:101ABC00364B01221A60FEF727FE386108E0FEF76C
:101ACC0023FE02463B69D31A022B01D90323A1E161
:101ADC002D4B1B6803F00203002BF0D02A4B1B6824
:101AEC0023F0F8027B685B69DB00274913430B602A
:101AFC0015E0264B00221A60FEF706FE386108E05E
:101B0C00FEF702FE02463B69D31A022B01D90323CE
:101B1C0080E11D4B1B6803F00203002BF0D17B68A6
:101B2C001B6803F00803002B3AD07B689B69002BE1
:101B3C0019D0174B01221A60FEF7E6FD386108E058
:101B4C00FEF7E2FD02463B69D31A022B01D90323AF
:101B5C0060E10D4B5B6A03F00203002BF0D0012017
:101B6C0000F0CEFA1CE00A4B00221A60FEF7CCFD06
:101B7C0038610FE0FEF7C8FD02463B69D31A022B11
:101B8C0008D9032346E100BF001002400000424286
:101B9C0080044242924B5B6A03F00203002BE9D1B2
:101BAC007B681B6803F00403002B00F0A680002365
:101BBC00FB758B4BDB6903F08053002B0DD1884BED
:101BCC00DB69874A43F08053D361854BDB6903F0B3
:101BDC008053BB60BB680123FB75824B1B6803F40D
:101BEC008073002B18D17F4B1B687E4A43F48073A3
:101BFC001360FEF789FD386108E0FEF785FD0246AB
:101C0C003B69D31A642B01D9032303E1754B1B6881
:101C1C0003F48073002BF0D07B68DB68012B06D1BA
:101C2C006F4B1B6A6E4A43F0010313622DE07B6815
:101C3C00DB68002B0CD16A4B1B6A694A23F0010349
:101C4C001362674B1B6A664A23F0040313621CE0A1
:101C5C007B68DB68052B0CD1614B1B6A604A43F037
:101C6C00040313625E4B1B6A5D4A43F0010313626B
:101C7C000BE05B4B1B6A5A4A23F001031362584B6F
:101C8C001B6A574A23F0040313627B68DB68002B42
:101C9C0015D0FEF739FD38610AE0FEF735FD024636
:101CAC003B69D31A41F28832934201D90323B1E044
:101CBC004B4B1B6A03F00203002BEED014E0FEF733
:101CCC0023FD38610AE0FEF71FFD02463B69D31A7B
:101CDC0041F28832934201D903239BE0404B1B6AAB
:101CEC0003F00203002BEED1FB7D012B05D13C4B05
:101CFC00DB693B4A23F08053D3617B68DB69002BA3
:101D0C0000F08780364B5B6803F00C03082B61D026
:101D1C007B68DB69022B46D1334B00221A60FEF73D
:101D2C00F3FC386108E0FEF7EFFC02463B69D31A7E
:101D3C00022B01D903236DE0294B1B6803F00073C0
:101D4C00002BF0D17B681B6AB3F5803F08D1244B84
:101D5C005B6823F400327B689B68214913434B601A
:101D6C001F4B5B6823F474127B68196A7B685B6A8F
:101D7C000B431B4913434B601B4B01221A60FEF7AC
:101D8C00C3FC386108E0FEF7BFFC02463B69D31A7E
:101D9C00022B01D903233DE0114B1B6803F00073A8
:101DAC00002BF0D035E0104B00221A60FEF7ACFC93
:101DBC00386108E0FEF7A8FC02463B69D31A022BF7
:101DCC0001D9032326E0064B1B6803F00073002B9C
:101DDC00F0D11EE07B68DB69012B07D1012319E0F0
:101DEC000010024000700040600042420B4B5B68E8
:101DFC00FB60FB6803F480327B681B6A9A4206D155
:101E0C00FB6803F470127B685B6A9A4201D0012371
:101E1C0000E0002318461837BD4680BD0010024074
:101E2C0080B584B000AF786039607B68002B01D13D
:101E3C000123D0E06A4B1B6803F007033A689A420F
:101E4C0010D9674B1B6823F0070265493B681343A5
:101E5C000B60634B1B6803F007033A689A4201D08E
:101E6C000123B8E07B681B6803F00203002B20D031
:101E7C007B681B6803F00403002B05D0594B5B688F
:101E8C00584A43F4E06353607B681B6803F0080313
:101E9C00002B05D0534B5B68524A43F4605353609C
:101EAC00504B5B6823F0F0027B689B684D491343F1
:101EBC004B607B681B6803F00103002B40D07B68F0
:101ECC005B68012B07D1474B1B6803F40033002BD5
:101EDC0015D101237FE07B685B68022B07D1414B56
:101EEC001B6803F00073002B09D1012373E03D4BF9
:101EFC001B6803F00203002B01D101236BE0394B6B
:101F0C005B6823F003027B685B68364913434B60C4
:101F1C00FEF7FAFBF8600AE0FEF7F6FB0246FB68F8
:101F2C00D31A41F28832934201D9032353E02D4B4B
:101F3C005B6803F00C027B685B689B009A42EBD1F8
:101F4C00274B1B6803F007033A689A4210D2244BC4
:101F5C001B6823F0070222493B6813430B60204B9C
:101F6C001B6803F007033A689A4201D0012332E060
:101F7C007B681B6803F00403002B08D0194B5B68CB
:101F8C0023F4E0627B68DB68164913434B607B6883
:101F9C001B6803F00803002B09D0124B5B6823F479
:101FAC0060527B681B69DB000E4913434B6000F0E9
:101FBC0021F802460B4B5B681B0903F00F030A491F
:101FCC00CB5C22FA03F3094A1360094B1B681846D1
:101FDC00FEF758FB002318461037BD4680BD00BFE6
:101FEC000020024000100240106400080000002095
:101FFC000400002080B487B000AF0023FB600023F6
:10200C00BB6000237B6100237B6000233B611E4B84
:10201C005B68FB60FB6803F00C03042B02D0082BFD
:10202C0003D027E0194B3B6127E0FB689B0C03F0C6
:10203C000F03174AD35C7B60FB6803F48033002BDF
:10204C0010D0114B5B685B0C03F00103114AD35C9D
:10205C00BB607B680D4A03FB02F2BB68B2FBF3F377
:10206C007B6104E07B680C4A02FB03F37B617B69B8
:10207C003B6102E0054B3B6100BF3B6918461C37D6
:10208C00BD4680BC704700BF0010024000127A00B1
:10209C00286400083864000800093D0080B400AFD3
:1020AC00024B1B681846BD4680BC704700000020E0
:1020BC0080B500AFFFF7F2FF0246054B5B681B0AC9
:1020CC0003F007030349CB5C22FA03F3184680BDE7
:1020DC00001002402064000880B500AFFFF7DEFF5F
:1020EC000246054B5B68DB0A03F007030349CB5C34
:1020FC0022FA03F3184680BD001002402064000849
:10210C0080B485B000AF78600A4B1B680A4AA2FB0A
:10211C0003235B0A7A6802FB03F3FB6000BFFB68D6
:10212C005A1EFA60002BF9D100BF00BF1437BD4610
:10213C0080BC704700000020D34D621080B582B087
:10214C0000AF78607B68002B01D101234AE07B68EB
:10215C0093F84130DBB2002B06D17B68002283F868
:10216C0040207868FEF754F97B68242283F84120DC
:10217C007B681B68DA687B681B6822F40052DA60A3
:10218C00786800F025F97B681B681A697B681B6806
:10219C0022F490421A617B681B685A697B681B6841
:1021AC0022F022025A617B681B685A697B681B68A3
:1021BC0042F008025A617B681B68DA687B681B680E
:1021CC0042F40052DA607B6800225A647B68202259
:1021DC0083F841207B68202283F842207B68002210
:1021EC005A63002318460837BD4680BD80B58AB0B7
:1021FC0002AFF860B9603B601346FB8000237B6143
:10220C00FB6893F84130DBB2202B6DD1BB68002BFF
:10221C0002D0FB88002B01D1012366E0FB68002271
:10222C005A64FB68212283F84120FEF76DFA78612D
:10223C00FB68FA889A84FB68FA88DA84FB689B68E6
:10224C00B3F5805F08D1FB681B69002B04D1002318
:10225C00FB61BB68BB6103E0BB68FB610023BB6136
:10226C002AE03B6800937B6900228021F86800F02B
:10227C0040F80346002B01D0032336E0FB69002B0A
:10228C000BD1BB691B881A46FB681B68C2F308029A
:10229C005A60BB690233BB6107E0FB691A78FB68C3
:1022AC001B685A60FB690133FB61FB68DB8C9BB2DA
:1022BC00013B9AB2FB68DA84FB68DB8C9BB2002B87
:1022CC00CFD13B6800937B6900224021F86800F075
:1022DC0010F80346002B01D0032306E0FB682022F4
:1022EC0083F84120002300E0022318462037BD4626
:1022FC0080BD80B590B000AFF860B9603B6013460C
:10230C00FB7150E0BB6CB3F1FF3F4CD0BB6C002BAE
:10231C0007D0FEF7F9F902463B68D31ABA6C9A4219
:10232C0041D2FB681B680C33BB62BB6A53E8003FAD
:10233C007B627B6A23F4D073FB63FB681B680C33F2
:10234C00FA6B7A633B63396B7A6B41E80023FB626F
:10235C00FB6A002BE5D1FB681B6814337B617B693E
:10236C0053E8003F3B613B6923F00103BB63FB680F
:10237C001B681433BA6B3A62FB61F9693A6A41E83B
:10238C000023BB61BB69002BE5D1FB68202283F8DD
:10239C004120FB68202283F84220FB68002283F84E
:1023AC00402003230FE0FB681B681A68BB681340CE
:1023BC00BA689A420CBF01230023DBB21A46FB79A0
:1023CC009A429FD0002318464037BD4680BD00007E
:1023DC0080B584B000AF78607B681B681B6923F400
:1023EC0040517B68DA687B681B680A431A617B681A
:1023FC009A687B681B691A437B685B691343BB60F3
:10240C007B681B68DB6823F4B05323F00C037A68F9
:10241C001268B9680B43D3607B681B685B6923F453
:10242C0040717B689A697B681B680A435A617B68B8
:10243C001B682C4A934203D1FFF74EFEF86002E072
:10244C00FFF736FEF860FA6813469B0013449A00B7
:10245C001A447B685B689B00B2FBF3F3224AA2FB35
:10246C0003235B091901FA6813469B0013449A0075
:10247C001A447B685B689B00B2FBF3F21A4BA3FB1C
:10248C0002035B09642000FB03F3D31A1B013233F4
:10249C00154AA2FB03235B0903F0F0031944FA6805
:1024AC0013469B0013449A001A447B685B689B009C
:1024BC00B2FBF3F20C4BA3FB02035B09642000FBA1
:1024CC0003F3D31A1B013233074AA2FB03235B0924
:1024DC0003F00F027B681B680A449A6000BF103738
:1024EC00BD4680BD003801401F85EB5190B5FFB053
:1024FC0000AF07F5FC73A3F5FA73186007F5FC73CE
:10250C00A3F5F87300225A6007F5FC73A3F5F87372
:10251C0000229A6007F5FC73A3F5F87300221A6089
:10252C000023C7F8F43113E007F5FC73A3F5F87238
:10253C00D7F8F4311B0113440833144A1C1D1346FD
:10254C000FCB84E80F00D7F8F4310133C7F8F4311E
:10255C00D7F8F4311D2BE7DD07F5FC73A3F5FA73FF
:10256C001A6807F5FC73A3F5F873104619464FF477
:10257C00F6731A4602F0BAFD07F5FC73A3F5FA736D
:10258C00186807F5FE77BD4690BD00BF0C00002013
:10259C0090B488B000AFF860B9607A60FB70FB68EB
:1025AC001B681D2B01DD002339E007F1100300220D
:1025BC001A605A609A60DA60BB683B61FB783B77C3
:1025CC0007F11003191D7B68D3E90023C1E900232F
:1025DC00FB689B68FA681B01134408331C1D07F148
:1025EC0010030FCB84E80F00FB689B685A1CFB6838
:1025FC009A60FB689A680C4B83FB02131344191105
:10260C00D317C91A0B461B015B1A5B00D11AFB6866
:10261C009960FB681B685A1CFB681A6001231846FA
:10262C002037BD4690BC70478988888890B482B0AA
:10263C0000AF786039603B685B6879683A681B0169
:10264C00134408330C4604330FCB84E80F0078682E
:10265C000837BD4690BC704790B486B000AF786028
:10266C0039603B681B68002B07DC7B68224A1C46E0
:10267C0013460FCB84E80F0038E03B685B683A6880
:10268C001B011344083307F1080404330FCB84E80F
:10269C000F003B685B683A681B0113440833164A09
:1026AC001C1D13460FCB84E80F003B681B685A1E99
:1026BC003B681A603B685B685A1C3B685A603B6815
:1026CC005A680E4B83FB021313441911D317C91A02
:1026DC000B461B015B1A5B00D11A3B6859607B6887
:1026EC001C4607F108030FCB84E80F0078681837F5
:1026FC00BD4690BC704700BF0C00002089888888BC
:10270C0080B584B000AF78607B6859687B689B6843
:10271C001A46154802F0DCFD0023FB6019E07A68CC
:10272C00FB681B0113440C331B68B3F1FF3F03D14F
:10273C000E4802F0CDFD09E07A68FB681B011344DA
:10274C000C331B6819460A4802F0C2FDFB680133C2
:10275C00FB60FB681D2BE2DD064802F053FE00BF58
:10276C001037BD4680BD00BF086200081462000827
:10277C001862000820620008B0B5ADF5067D00AF08
:10278C00C7F8FC01C7F8F811C7F8F421C7F8F03105
:10279C008F4B1B685A1C8E490A60C7F81432D7F845
:1027AC00FC31C7F80032D7F8F831C7F80432D7F843
:1027BC00F431C7F80832D7F8F031C7F80C32D7F833
:1027CC002832C7F810328349D7F814221346DB019C
:1027DC001344DB000B441D4607F500740FCC0FC5EA
:1027EC0023682B607B49D7F814221346DB01134472
:1027FC00DB000B441433D7F82C221A607549D7F838
:10280C0014221346DB011344DB000B441833D7F8B6
:10281C0030221A606F49D7F814221346DB01134497
:10282C00DB000B441C33D7F834221A60D7F838324B
:10283C00002B1ED0684B1B680021D7F83402984738
:10284C0001466448D7F814221346DB011344DB001D
:10285C000344243319605F49D7F814221346DB0173
:10286C001344DB000B4424331B68002B1FD10023C3
:10287C00A9E05A4B1B68D7F83402984701465548D3
:10288C00D7F814221346DB011344DB000344203336
:10289C0019605049D7F814221346DB011344DB00AE
:1028AC000B4420331B68002B01D100238BE04B4BD6
:1028BC001B68D7F83402984701464648D7F81422CB
:1028CC001346DB011344DB000344283319604149F0
:1028DC00D7F814221346DB011344DB000B442833D6
:1028EC001B68002B26D1D7F83832002B10D03C4B6C
:1028FC009C683849D7F814221346DB011344DB00DB
:10290C000B4424331B681946D7F83402A0470FE058
:10291C00334B9C682F49D7F814221346DB01134420
:10292C00DB000B4420331B681946D7F83402A04750
:10293C00002348E02B4B19682648D7F8142213467D
:10294C00DB011344DB00034403F128043B46184627
:10295C00884707F50673A3F50672231D11464FF43D
:10296C00F672184602F0C2FB1E4B19681948D7F8CC
:10297C0014221346DB011344DB00034403F50674F5
:10298C003B461846884707F50673A3F506732046A1
:10299C0019464FF4F6731A4602F0A8FB0D49D7F806
:1029AC0014221346DB011344DB000B4403F20443F3
:1029BC00D7F838221A60D7F814221346DB011344D7
:1029CC00DB00044A1344184607F50677BD46B0BD34
:1029DC00002E0020B0050020980400207404002074
:1029EC00580000201C00002080B588B000AFF860B3
:1029FC00B9607A607B807B68002B4DD0294B5B687B
:102A0C00FA68D269302110469847F861FB69002BAF
:102A1C0044D0FB69BA681A60FB697A685A60FB6932
:102A2C00002283F82D20FB697A881A81FB69032226
:102A3C009A72FB69002283F82420FB694FF0FF3265
:102A4C009A62FB68D3F80434002B12D0164B5B68E7
:102A5C00FA68526AF9691046984778617B69002BCD
:102A6C001DD1104B9B68FA68D269F96910469847DA
:102A7C0015E00E4B5B68FA68106AB968FA699847FA
:102A8C00B861BB69002B0AD1064B9B68FA68D26906
:102A9C00F9691046984702E000BF00E000BF2037FC
:102AAC00BD4680BD5800002098040020740400200E
:102ABC0080B58AB000AFF860B9607A607B80424B19
:102ACC005B68FA68D26930211046984738623B6AD5
:102ADC00002B75D03C4B5B68FA68D269798810463C
:102AEC009847F861FB69002B07D1374B9B68FA6854
:102AFC00D269396A1046984763E000237B620AE08A
:102B0C007B6A7A681A447B6AF9690B4412781A70EA
:102B1C007B6A01337B627B887A6A9A42F0DB3B6A80
:102B2C00BA681A603B6AFA695A603B6A012283F8F8
:102B3C002D203B6A7A881A813B6A03229A723B6A7F
:102B4C00002283F824203B6A4FF0FF329A62FB6824
:102B5C00D3F80434002B19D01C4B5B68FA68526A0A
:102B6C00396A1046984778617B69002B29D1164B3E
:102B7C009B68FA68D269F96910469847124B9B68B2
:102B8C00FA68D269396A104698471AE0104B5B68AC
:102B9C00FA68106AB9683A6A9847B861BB69002B41
:102BAC000FD1094B9B68FA68D269F96910469847AE
:102BBC00054B9B68FA68D269396A1046984700E061
:102BCC0000BF2837BD4680BD580000209804002067
:102BDC007404002080B586B000AFF860B9607A60EC
:102BEC007B80174B5B68FA68D26930211046984796
:102BFC0078617B69002B1FD07B69BA681A607B698E
:102C0C007A881A817B697A685A607B69002283F81A
:102C1C002D200C4B5B68FA68906AB9687A69984702
:102C2C0038613B69002B08D1054B9B68FA68D26967
:102C3C0079691046984700E000BF1837BD4680BD43
:102C4C0058000020740400202DE9F04399B002AF25
:102C5C0078607B68D3F80434002B00F08580704BCF
:102C6C00DB687A68526A1046984778637B6B002B56
:102C7C0045D06C4B1B687A68796B104698470023DB
:102C8C00FB647B6B93F82430062B0BD17B685C695F
:102C9C007B6B18687B6B59687B6B1A890123A04787
:102CAC00F8640FE07B6B93F82430072B0AD17B6818
:102CBC005C697B6B18687B6B59687B6B1A8900238A
:102CCC00A047F864FB6C002B19D07B6B93F82D306C
:102CDC00002B07D0544B9B687A68D0697A6B52688A
:102CEC0011469847504B9B687A68D269796B1046AD
:102CFC0098474B4B9B687A68526A104698474B4BE7
:102D0C00DB687A6802F12C0107F120021046984723
:102D1C003A6A474B1B689A4200F0FF803A6A7B681C
:102D2C005B689A4205D03A6A7B68DB689A4240F04D
:102D3C00F4803B4BDB687A68526A104698473863DC
:102D4C003B6B002B00F0E980364B5C687868396A85
:102D5C0097F82C309BB207F12002043200931346F3
:102D6C000A46396BA047D8E06B461E467B681B6A47
:102D7C0019684B1EBB640A460023904699464FF0D7
:102D8C0000024FF000034FEA491343EAD8634FEABD
:102D9C0048120A46002314461D464FF000024FF01D
:102DAC0000036B0143EAD46362010B469B000733BB
:102DBC00DB08DB00ADEB030D02AB03339B089B0080
:102DCC007B641C4B1B697A68106A07F11C02796CD6
:102DDC00984700233B6563E0164B9B687A68106A42
:102DEC007A6C396D52F8212011469847B8630D4B17
:102DFC001B687A68B96B1046984700237B65BB6BE0
:102E0C0093F82430062B17D17B685C69BB6B186870
:102E1C00BB6B5968BB6B1A890123A04778651BE013
:102E2C009804002048000020580000201C000020BE
:102E3C000C00002074040020BB6B93F82430072B8B
:102E4C000AD17B685C69BB6B1868BB6B5968BB6B40
:102E5C001A890023A04778657B6D002B1DD0BB6BB6
:102E6C0093F82D30002B07D02E4B9B687A68D069D5
:102E7C00BA6B5268114698472A4B9B687A68D2699C
:102E8C00B96B10469847284BDB687A68106A7A6CE5
:102E9C00396D52F82120114698473B6D01333B6543
:102EAC00FB693A6D9A4297DB204BDB687A6802F13A
:102EBC002C0107F10C0210469847FA681C4B1B6852
:102ECC009A4229D0FB683B64FA687B685B689A423B
:102EDC0004D0FA687B68DB689A421DD107F10C03B9
:102EEC0004331B683B64104B9B687A68126A396C1C
:102EFC0010469847F863FB6B002B0DD00D4B5C68AC
:102F0C007868F9683B7E9BB207F10C02043200939F
:102F1C0013460A46F96BA047B54600BF5C37BD4661
:102F2C00BDE8F08358000020740400201C00002031
:102F3C000C000020480000202DE9F04393B002AFB4
:102F4C0078606B461E467B689B6A19684B1EFB6259
:102F5C000A460023904699464FF000024FF00003BA
:102F6C004FEA491343EAD8634FEA48120A46002352
:102F7C0014461D464FF000024FF000036B0143EA6C
:102F8C00D46362010B469B000733DB08DB00ADEB1F
:102F9C00030D02AB03339B089B00BB627A4B1B698E
:102FAC007A68906A07F11C02B96A984700233B6360
:102FBC0057E0754B9B687A68906ABA6A396B52F81D
:102FCC002120114698473862704B9B687A68396AA1
:102FDC001046984700237B633B6A93F82430082BF8
:102FEC000BD17B689C693B6A18683B6A59683B6AE1
:102FFC001A890123A04778630FE03B6A93F82430C9
:10300C00092B0AD17B689C693B6A18683B6A596832
:10301C003B6A1A890023A04778637B6B002B1DD079
:10302C003B6A93F82D30002B07D0594B9B687A687C
:10303C00D0693A6A526811469847554B9B687A6832
:10304C00D269396A104698474F4BDB687A68906AA8
:10305C00BA6A396B52F82120114698473B6B013301
:10306C003B63FB693A6B9A42A3DB4A4BDB687A6899
:10307C0002F5067107F10C0210469847FA68464BA8
:10308C001B689A4278D0FB68BB63FA687B681B6844
:10309C009A424ED107F10C0304331B68BB6307F152
:1030AC000C0308331B88FB84374B5B697A68926A84
:1030BC00B96B104698470346002B0ED1344B5B6816
:1030CC007A68D269302110469847F863FB6B002B65
:1030DC0054D0FB6B012283F82D20FB6BBA6B1A606A
:1030EC00FB6BFA8C1A812A4B5B687A68D269F98C73
:1030FC00104698470246FB6B5A60FB6B5B68002BD3
:10310C0007D1234B9B687A68D269F96B10469847B4
:10311C0035E0FB6B002283F82420FB6B4FF0FF3271
:10312C009A62194B5B687A68906AB96BFA6B98472C
:10313C0011E0FA687B689B689A4204D107F10C0392
:10314C0004331B68BB63104B9B687A68926AB96B3B
:10315C0010469847F863FB6B002B0DD00B4BDC68CB
:10316C007868F9683B7E9BB207F10C02043200933D
:10317C0013460A46F96BA047B54601E000BFB546B9
:10318C004437BD46BDE8F08374040020480000209D
:10319C00580000201C0000200C00002080B582B0DC
:1031AC0000AF78607868FFF74FFD7868FFF7C4FED2
:1031BC0000BF0837BD4680BD90B585B000AFF86044
:1031CC00B9607A607B80FB685B68BA689A4204D00D
:1031DC00FB68DB68BA689A420AD11C4B5C68FB68D6
:1031EC0003F12C007B88DBB27A68B968A04729E030
:1031FC00FB681B68BA689A4204D0FB689B68BA6883
:10320C009A420AD1114B5C68FB6803F506707B8807
:10321C00DBB27A68B968A04714E00D4B5B69FA68B9
:10322C00926AB968104698470346002B0AD0074BA0
:10323C005C68FB6803F506707B88DBB27A68B9685A
:10324C00A047FFE700BF1437BD4690BD1C0000200F
:10325C007404002080B58AB000AF01233B620023C8
:10326C007B6100233B6100233B6000237B600023D8
:10327C00BB600023FB600023BB610123FB610023C7
:10328C007B623B4619461248FDF767FB022110484A
:10329C00FDF760FE0346002B02D00E4802F0B2F898
:1032AC0001210B48FDF756FE0346002B02D00A48BD
:1032BC0002F0A8F80648FDF719FC0346002B02D0D3
:1032CC00064802F09FF800BF2837BD4680BD00BFFE
:1032DC003805002024620008486200086C6200086F
:1032EC0098B500AF094B0A4A00210A48FDF711FDB9
:1032FC00094B5C69094B1868054B5968044B1B69F1
:10330C009BB2024AA04700BF98BD00BF242E0020EC
:10331C00082E00203805002030000020042E00204C
:10332C0080B584B000AFF860B9601346FB71FB79CF
:10333C000E4A13610D4AFB6853600C4B04229A60D1
:10334C000A4B0022DA60094B00221A75084BBA6846
:10335C0006490848FDF70EFC0346002B0CBF012361
:10336C000023DBB218461037BD4680BD2C2E002042
:10337C00442E00203805002080B586B000AFF860E0
:10338C00B9603B601346FB80FB681946114801F09D
:10339C009FFF00237B610AE07B69BA6813441B78AA
:1033AC0019460D4801F094FF7B6901337B617B6901
:1033BC00072BF1DD3B68002B04D1084802F022F802
:1033CC00002303E00A2001F09BFF01231846183765
:1033DC00BD4680BD806200088C62000894620008C3
:1033EC0080B586B000AFF860B9603B601346FB80D7
:1033FC00FB681946114801F06BFF00237B610AE062
:10340C007B69BA6813441B7819460D4801F060FFBC
:10341C007B6901337B617B69072BF1DD3B68002BFA
:10342C0004D1084801F0EEFF002303E00A2001F06C
:10343C0067FF012318461837BD4680BDA0620008FF
:10344C008C6200089462000890B58FB006AFFFF74D
:10345C0001FF0023FB6109E0FB69D9B21A4AFB6941
:10346C0013440A461A70FB690133FB61FB690F2B8D
:10347C00F2D9164801F0C6FF4FF47A70FDF74EF9F9
:10348C00134B1C68384608234FF484621149A0473B
:10349C00114B1C68002304933B4603930F4B029380
:1034AC000F4B01930F4B00930423032202210120A5
:1034BC00A04703460C4A1360074B1B690A4A126863
:1034CC0010469847F8E700BF482E0020AC62000871
:1034DC0058000020582E002030000020ED3300084A
:1034EC00853300082D330008042E002080B500AF72
:1034FC00FDF70AF90346184680BD80B58EB000AFC3
:10350C007860396000237B633B6893F82430002B90
:10351C0030D13B68012283F825203B68002283F8D8
:10352C002C2001237B633B680022DA727B681B68CA
:10353C007B6207F10C033A6812681A6007F10C03FE
:10354C0004333A6812891A803B689B7ABB7408234F
:10355C007B857B681B697A8DD2B207F10C01786A86
:10356C0098470346002B00F0D0803B68012283F87B
:10357C002420CAE03B6893F82430022B4CD1012361
:10358C007B633B681B687B623B68DB7A1A4613469D
:10359C00DB009B1ABB613B68DB7A3B733B681B8986
:1035AC001A46BB69D31A7B617B69072BA8BF07231B
:1035BC007B8500233B630FE03B685B68396BBA6922
:1035CC000A441A443B6B0133127838333B4403F8FA
:1035DC002C2C3B6B01333B637B8D3A6B9A42EBDBC0
:1035EC007B681B697A8DD2B20132D2B207F10C0121
:1035FC00786A98470346002B00F087803B68DB7A9B
:10360C000133DAB23B68DA727B69072B7DDC3B68ED
:10361C00042283F8242078E03B6893F82430032BB1
:10362C0042D101237B633B681B687B623B68DB7A7E
:10363C001A461346DB009B1A3B623B68DB7A3B73F2
:10364C003B681B891A463B6AD31AFB61FB69072B43
:10365C00A8BF07237B850023FB620FE03B685B68F8
:10366C00F96A3A6A0A441A44FB6A0133127838330D
:10367C003B4403F82C2CFB6A0133FB627B8DFA6A0A
:10368C009A42EBDB7B681B697A8DD2B20132D2B2E3
:10369C0007F10C01786A98470346002B35D03B683C
:1036AC00042283F8242030E03B6893F82430042B68
:1036BC002BD101237B6308237B857B689B687B6212
:1036CC0007F10C033A6812681A603B685A683B6849
:1036DC001B891946104600F01FFF02463B681A6210
:1036EC0007F10C0304333A68126A1A607B681B6991
:1036FC007A8DD2B207F10C01786A98470346002BF9
:10370C0003D03B68052283F824207B6B002B06D06A
:10371C00FFF7ECFE034603F57A723B689A627B6B0B
:10372C0018463837BD4680BD80B586B000AFF8600E
:10373C00B9607A603B6000237B61BB6893F82430EE
:10374C00012B0BD1FB685B687A689A4206D1012386
:10375C007B61BB68022283F824203EE0BB6893F8AF
:10376C002430052B39D1FB68DB687A689A4234D156
:10377C0001237B613B681B79FB743B685B79BB74F1
:10378C003B689A79BB6883F82520FB7C002B07D01B
:10379C00BB68BA7CDA72BB68032283F824201CE075
:1037AC00BB6893F82530002B04D0BB68062283F845
:1037BC00242012E0BB689B7A013BDAB2BB689A7298
:1037CC00BB689B7A002B04D0BB68002283F82420B2
:1037DC0003E0BB68072283F824207B69002B06D00A
:1037EC00FFF784FE034603F57A72BB689A62FFF713
:1037FC007DFE0246BB689B6A9A4216D9BB680122C1
:10380C0083F82C20BB689B7A013BDAB2BB689A72B6
:10381C00BB689B7A002B04D0BB68002283F8242061
:10382C0003E0BB68072283F824207B69184618370D
:10383C00BD4680BD80B590B000AF78603960002384
:10384C00FB633B6893F82430012B22D10123FB63EB
:10385C007B685B68BB6207F108033A6812681A6000
:10386C0007F1080304333A6812891A803B689B7A83
:10387C00BB737B681B6907F108010822B86A98477B
:10388C000346002B00F0E1803B68022283F82420E1
:10389C00DBE03B6893F82430052B40F0D680012305
:1038AC00FB637B68DB68BB6207F108033A6812684C
:1038BC001A60002387F83B3000237B633B681A892E
:1038CC00764BA3FB0213D21A520813449B089BB2EB
:1038DC0018463B681A89714BA3FB0213D11A49088D
:1038EC000B4499080B46DB005B1AD31A9BB2002BD6
:1038FC0014BF01230023DBB203447B627B6A002BE1
:10390C0000DA0733DB101A467B6A03F00703002B3F
:10391C0014BF01230023DBB213443B6200233B633F
:10392C0031E03A683B6B13440C331B78FB773B6BF1
:10393C00DB007A6AD31ABB61BB69082BA8BF0823CA
:10394C007B610023FB6213E0FA7FFB6A42FA03F30C
:10395C0003F00103002B08D1012387F83B303B6BAC
:10396C00DB00FA6A13447B6306E0FB6A0133FB62FB
:10397C00FA6A7B699A42E7DB97F83B30002B07D158
:10398C003B6B01333B633A6B3B6A9A42C9DB00E009
:10399C0000BF97F83B30002B13D001233B737B6B9C
:1039AC00DBB27B737B681B6907F108010822B86ADC
:1039BC0098470346002B48D03B68032283F8242009
:1039CC0043E000233B7300237B733B685A683B68DE
:1039DC001B891946104600F09FFD38613B681B6A35
:1039EC003A699A420CBF01230023DBB21A463B68AA
:1039FC0083F825203B6893F82530BB737B681B69E3
:103A0C0007F108010822B86A98470346002B1CD01E
:103A1C003B6893F82530002B04D03B68082283F8D0
:103A2C00242012E03B689B7A013BDAB23B689A7225
:103A3C003B689B7A002B04D03B68002283F824203F
:103A4C0003E03B68092283F82420FB6B002B06D093
:103A5C00FFF74CFD034603F57A723B689A62FFF759
:103A6C0045FD02463B689B6A9A4212D93B689B7A99
:103A7C00013BDAB23B689A723B689B7A002B04D00C
:103A8C003B68002283F8242003E03B68092283F87A
:103A9C002420FB6B18464037BD4680BD2549922437
:103AAC0080B590B000AFF860B9607A603B600023DD
:103ABC00FB63BB6893F82430002B1ED1FB681B689A
:103ACC007A689A4219D10023BB6308E0BA68BB6BD1
:103ADC0013440C3300221A70BB6B0133BB63BB6BFA
:103AEC00122BF3D90123FB633B689A88BB681A81BC
:103AFC00BB68012283F824209AE0FB689B687A68F3
:103B0C009A420AD10123FB633B685A68BB681A626C
:103B1C00BB68052283F824208AE0BB6893F8243024
:103B2C00022B3ED10123FB633B681B78FB77FA7FAA
:103B3C001346DB009B1ABB61FB7FDB08DBB27B61AE
:103B4C00FB7F03F007033B61BA687B6913440C33BA
:103B5C001B785AB201213B6901FA03F35BB21343A0
:103B6C005BB2D9B2BA687B6913440C330A461A703B
:103B7C0000237B630EE07B6B01333A681A44BB680D
:103B8C005B68B869796B01440B4412781A707B6BD3
:103B9C0001337B63B7F84830013B7A6B9A42EADB1E
:103BAC0046E0BB6893F82430032B41D10123FB631F
:103BBC003B681B7887F82F3097F82F201346DB00D3
:103BCC009B1ABB6297F82F30DB08DBB27B6297F84D
:103BDC002F3003F007033B62BA687B6A13440C3343
:103BEC001B785AB201213B6A01FA03F35BB213430F
:103BFC005BB2D9B2BA687B6A13440C330A461A70AA
:103C0C0000233B630EE03B6B01333A681A44BB68FC
:103C1C005B68B86A396B01440B4412781A703B6BC1
:103C2C0001333B63B7F84830013B3A6B9A42EADB0D
:103C3C00FB6B002B06D0FFF759FC034603F57A7299
:103C4C00BB689A62FB6B18464037BD4680BD80B49A
:103C5C0083B000AF786001227B6802FA03F3184648
:103C6C000C37BD4680BC704780B584B000AF78601F
:103C7C000023FB6002E0FB680133FB60F868FFF790
:103C8C00E6FF02467B689342F5DCFB68184610376A
:103C9C00BD4680BD80B487B000AFF860B9607A6073
:103CAC00BB68002B00DA0733DB107B61BB685A4220
:103CBC0003F0070302F0070258BF53423B617B68D5
:103CCC00002B11D07B69FA6813441B785AB201217E
:103CDC003B6901FA03F35BB2134359B27B69FA688F
:103CEC001344CAB21A7012E07B69FA6813441B7849
:103CFC005AB201213B6901FA03F35BB2DB435BB2BD
:103D0C00134059B27B69FA681344CAB21A7000BFE7
:103D1C001C37BD4680BC704780B485B000AF78605E
:103D2C0039603B68002B00DA0733DB10FB603B6823
:103D3C005A4203F0070302F0070258BF5342BB601C
:103D4C00FB687A6813441B781A46BB6842FA03F383
:103D5C0003F00103002B14BF01230023DBB2184630
:103D6C001437BD4680BC704784B090B400AF07F1E7
:103D7C00080484E80F00BB681A467B6A9A4206D88E
:103D8C00BB681A46BB691A447B6A9A4201D8002365
:103D9C0000E001231846BD4690BC04B070470000FB
:103DAC0084B090B589B006AF07F1180484E80F0011
:103DBC00B86BFFF74CFF03465A1E796BFB6B91FBFC
:103DCC00F3F313443B60FB6939681846FFF7A4FF13
:103DDC000346002B21D000237B6016E0FB6A7A6837
:103DEC0003FB02F27B6BD018BB69FA6A796802FBA1
:103DFC0001F17A6B0A4413441B781A4601462B488E
:103E0C0001F066FA7B6801337B60FB6AFA6B92FB0C
:103E1C00F3F37A689A42E1DB42E03A6A7B6AD31A9E
:103E2C00BA6B9A4204D1796B214801F051FA37E010
:103E3C00FB6AFA6B9A4232DDBB6B5A1CFB6BD90FD7
:103E4C000B445B10059304927B6B03936C4607F158
:103E5C00280393E8070084E8070007F118030FCB49
:103E6C00FFF79EFFFB6BDA0F13445B101A467B6B5C
:103E7C001A44BB6B591CFB6BD80F03445B100593A6
:103E8C00049103926C4607F1280393E8070084E839
:103E9C00070007F118030FCBFFF782FF00E000BF0C
:103EAC000C37BD46BDE8904004B07047E86200088E
:103EBC00F462000884B090B587B006AF07F1100427
:103ECC0084E80F003B6A05930023049300230393BB
:103EDC006C4607F1200393E8070084E8070007F11C
:103EEC0010030FCBFFF75CFF00BF0437BD46BDE8E6
:103EFC00904004B07047000084B090B58DB000AF16
:103F0C0007F1400484E80F000023FB6294E0F86A98
:103F1C00FFF79DFE38613B69013BFB60BA6CFB6CA3
:103F2C00D21AFB6AD31A1846FFF791FE0346013BDF
:103F3C00BB60BB6C5A1CFB6CD21AFB6AD31A1846BA
:103F4C00FFF785FE0346013B7B603C6DF86AFFF78B
:103F5C007EFE034694FBF3F319463F4801F0B8F993
:103F6C000023BB6205E0202001F0CAF9BB6A0133D3
:103F7C00BB62BA6ABB689A42F5DB00237B621BE02A
:103F8C00786CFA687B6A13441946FFF7C5FE034642
:103F9C001946324801F09CF900233B6205E02020D1
:103FAC0001F0AEF93B6A01333B623A6A7B689A4294
:103FBC00F5DB7B6A01337B627A6A3B699A42DFDB11
:103FCC00BA6CFB6CD31AFA6A9A4203D10A2001F03C
:103FDC0097F93AE0224801F07BF90023FB6105E0F8
:103FEC00202001F08DF9FB690133FB61BB68013BBB
:103FFC00FA699A42F4DB0023BB6113E0194801F023
:10400C0067F900237B6105E0202001F079F97B69D9
:10401C0001337B617B68023B7A699A42F4DBBB69B2
:10402C000133BB61BA693B699A42E7DB0A2001F0B4
:10403C0067F9FB6A0133FB62BB6C5A1CFB6CD31A2D
:10404C00FA6A9A42FFF663AF00BF00BF3437BD4631
:10405C00BDE8904004B07047006300080863000896
:10406C000C6300081863000884B090B585B004AFE9
:10407C0007F1100484E80F00104801F0C3F96C46F6
:10408C0007F1200393E8070084E8070007F1100309
:10409C000FCBFFF70FFF6C4607F1200393E80700E7
:1040AC0084E8070007F110030FCBFFF725FF00BFD3
:1040BC000437BD46BDE8904004B070471C6300084F
:1040CC0090B58DB002AFF860B9607A603B607868EB
:1040DC00FFF7BDFD03465A1EB9683B6891FBF3F32D
:1040EC0013447B62FB685B68796A1846FFF714FE21
:1040FC000346002B03D13A68BB6B9A4202DA4FF0AD
:10410C00FF338DE0FB685B693A689A420BD1FB6B1D
:10411C00002B06D0FB685B680122796A1846FFF712
:10412C00B9FDBB687CE03A68BB6B9A4248D17B68AE
:10413C00591C3B68DA0F13445B1018463B68DA0FC6
:10414C0013445B101A4600230193009203460A465F
:10415C00B968F868FFF7B4FFB8613B68DA0F13442D
:10416C005B101A46BB68D1187B68581C3B68DA0F89
:10417C0013445B101C463B68DA0F13445B101A4661
:10418C0000230193009223460246F868FFF798FF3C
:10419C007861BB69B3F1FF3F03D07B69B3F1FF3F9B
:1041AC0002D14FF0FF333BE0FB6B002B06D0FB68DA
:1041BC005B680122796A1846FFF76CFDBB682FE03B
:1041CC007B68591C3B68DA0F13445B101A46FB6B77
:1041DC000193BB6B009313460A46B968F868FFF766
:1041EC006FFF38623B6A002B01DB3B6A18E03B68CF
:1041FC00DA0F13445B101A46BB68D1187B68581C45
:10420C003B68DA0F13445B101A46FB6B0193BB6BD4
:10421C00009313460246F868FFF752FFF861FB69FA
:10422C0018462C37BD4690BD80B588B002AF78607B
:10423C0039603868FFF718FD78617869FFF707FD7A
:10424C0038617B681A69012301933B69009313461B
:10425C00002200217868FFF733FFF860FB68B3F1A8
:10426C00FF3F01D1002303E07B681A68FB6813440D
:10427C0018461837BD4680BD80B58AB002AFF860CD
:10428C00B9607A603B607868FFF7E1FC03465A1E20
:10429C00B9683B6891FBF3F31344FB61FB685B6803
:1042AC00F9691846FFF738FD0346012B0CD1BA68A3
:1042BC00BB6A9A4208D1FB685B680022F969184610
:1042CC00FFF7E8FCFB6933E0FB685B693A689A42EC
:1042DC0002D14FF0FF332BE07B68591C3B68DA0F9F
:1042EC0013445B101A46BB6A009313460A46B9681E
:1042FC00F868FFF7C1FFB861BB69002B01DBBB6934
:10430C0016E03B68DA0F13445B101A46BB68D118F1
:10431C007B68581C3B68DA0F13445B101A46BB6A67
:10432C00009313460246F868FFF7A6FF78617B6995
:10433C0018462037BD4680BD90B589B004AF786073
:10434C0039607B683A6803926C4603F1100207CA25
:10435C0084E807000FCBFFF707FD0346002B01D1C4
:10436C00002315E03B687A6812689B1AFB607B6837
:10437C001A69FB6800931346002200217868FFF746
:10438C007BFFB860BB68002BCCBF01230023DBB2E2
:10439C0018461437BD4690BDB0B590B000AFF8606C
:1043AC00B9607A603B600023FB6307E0FB6BBA6883
:1043BC00134400221A70FB6B0133FB63FA6B7B68AE
:1043CC009A42F3DB7B683A6802FB03F39A003B6882
:1043DC009B00013392FBF3F37B63786BFFF744FC98
:1043EC00B863B86BFFF733FC02467B6B934202DA7F
:1043FC00BB6B013BBB63B86BFFF729FC78637B6B32
:10440C005A003B6892FBF3F3002B00DA0733DB1006
:10441C003B63BB687B617B6BBA681344BB617B6B92
:10442C007B623B68BB623B6BFB62BB6BFB613868BE
:10443C00FFF71AFC03463B62FB681D4607F11404A8
:10444C000FCC0FC594E8070085E80700F8684037E3
:10445C00BD46B0BD80B400AF034B4FF0FF321A60C5
:10446C0000BFBD4680BC70477832002080B489B054
:10447C0000AF78603960264B1B68FB613B689B087A
:10448C003A6802F00302002A01D0012200E0002267
:10449C0013443B610023BB612DE003237B6124E0CB
:1044AC00BB699A007B691344FB60FA683B689A42CB
:1044BC000FD2FB691A02FB691B0E7868F96801447C
:1044CC0009784B40DBB2134951F823305340FB6160
:1044DC0008E0FB691A02FB691B0E0E4951F82330E8
:1044EC005340FB617B69013B7B617B69002BD7DA15
:1044FC00BB690133BB61BB693A699A42CDD8044AA6
:10450C00FB691360FB6918462437BD4680BC7047B5
:10451C00783200207400002080B582B000AF786043
:10452C003960FFF797FF39687868FFF79FFF034BF7
:10453C001B6818460837BD4680BD00BF7832002086
:10454C0080B483B000AF78607A68074B83FB02318C
:10455C00D317C91A0B465B000B44D11A0B461846ED
:10456C000C37BD4680BC70475655555580B584B048
:10457C0000AF786039603B68002B01DC002319E048
:10458C007B68002B06D00D4B5B68396878689847C0
:10459C00034604E03B68184600F098FD0346FB60B8
:1045AC00FB68002B05D0064B1A683B681344044A81
:1045BC001360FB6818461037BD4680BD58000020BC
:1045CC007C32002080B584B000AFF860B9607A60AE
:1045DC00BB68002B02D07B68002B01DC002312E0AF
:1045EC00FB68002B05D00A4B9B68B968F8689847A4
:1045FC0002E0B86800F072FD064B1A687B68D31AAB
:10460C00044A1360012318461037BD4680BD00BF15
:10461C00580000207C320020B0B58AB004AFF8609E
:10462C00B9607A607B68002B01D1012343E07B6881
:10463C007B61BB68002B14D17B69B3F1005F03D3A2
:10464C007B691F4A934235D3F9681E4800F040FE3F
:10465C001D4800F0D7FE79681C4800F039FE002395
:10466C0029E01B4B9D69BB687A6803926C4603F189
:10467C00100207CA84E807000FCBA8470346002B9B
:10468C0018D1F9680F4800F023FEB968114800F002
:10469C001FFEBB681968BB681B68BA6812691344B3
:1046AC001A460D4800F014FE7968084800F010FE18
:1046BC00002300E0012318461837BD46B0BD00BFEB
:1046CC000050002030630008406300086463000859
:1046DC0058000020706300087C63000880B584B02B
:1046EC0000AF786014217868FFF740FFB860BA68B3
:1046FC0079681348FFF790FF0346002B01D1002384
:10470C001AE0BB68002B01D1002315E0BB687A6866
:10471C001A610023FB6008E0BA68FB689B00134435
:10472C0000225A60FB680133FB60FB68022BF3DD4F
:10473C00BB6800221A60BB6818461037BD4680BDA6
:10474C003C64000880B586B000AF78607B68002BB5
:10475C0003D11A4800F056FE2DE000237B6127E0C0
:10476C007969174800F0B4FD7A687B699B001344A3
:10477C005B683B610023FB600EE03B69002B10D0B3
:10478C003B691B6819460F4800F0A2FD3B699B680A
:10479C003B61FB680133FB60FB68B3F57A7FECDBB4
:1047AC0000E000BF0A2000F0ABFD7B6901337B61A8
:1047BC007B69022BD4DD1837BD4680BD90630008A1
:1047CC00A0630008A863000880B588B000AFF8604B
:1047DC00B9607A60FB68002B01D1002379E0FB689B
:1047EC001B690C211846FFF7C1FE7861FB681B6939
:1047FC007A6919463948FFF70FFF0346002B01D1A0
:10480C00002366E07B69002B01D1002361E07B690A
:10481C00BA681A607B697A685A607B6900229A6070
:10482C00B868FFF78DFE3861FA683B699B0013444A
:10483C005B68FB61FB69002B06D1FA683B699B0046
:10484C0013447A695A603EE00023BB6128E0FB699F
:10485C001B68BA689A420BD1FB697A685A60FB688C
:10486C001B690C2279691846FFF7ACFEFB6830E037
:10487C00FB681B69FA6919461848FFF7CDFE034619
:10488C00002B12D0FB699B68002B03D1FB697A6962
:10489C009A600BE0FB699B68FB61BB690133BB61F0
:1048AC00BB69B3F57A7FD2DB00E000BFBB69B3F51F
:1048BC007A7F08DBFB681B690C2279691846FFF7C5
:1048CC0081FE002305E0FB681B685A1CFB681A601C
:1048DC00FB6818462037BD4680BD00BF4064000809
:1048EC0080B586B000AF786039607B68002B01D151
:1048FC00002330E03868FFF723FEF8607A68FB6825
:10490C009B0013445B687B6100233B611CE07B686C
:10491C001B697A6919461248FFF77EFE0346002B85
:10492C0017D07B69002B01D1002314E07B691B6835
:10493C003A689A4202D17B695B680CE07B699B68A0
:10494C007B613B6901333B613B69B3F57A7FDEDB0D
:10495C0000E000BF002318461837BD4680BD00BFDD
:10496C004864000880B588B000AF786039607B6817
:10497C00002B01D100234FE03868FFF7E1FD3861CF
:10498C007A683B699B0013445B68FB610023BB6145
:10499C0000237B6137E07B681B69FA691946204864
:1049AC00FFF73AFE0346002B32D0FB69002B31D0C7
:1049BC00FB691B683A689A421DD1FB699B68FB60D6
:1049CC00BB69002B06D17A683B699B001344FA68DB
:1049DC005A6002E0BB69FA689A607B681B690C221A
:1049EC00F9691846FFF7EEFD7B681B685A1E7B6859
:1049FC001A607B6810E0FB69BB61FB699B68FB611B
:104A0C007B6901337B617B69B3F57A7FC3DB02E0A1
:104A1C0000BF00E000BF002318462037BD4680BD14
:104A2C004C64000880B588B000AFF860B9607A605B
:104A3C00FB68002B01D100233BE00023FB6100232A
:104A4C00BB612FE0FA68BB699B0013445B687B6118
:104A5C0000233B611BE0FB681B697A691946174808
:104A6C00FFF7DAFD0346002B16D07B69002B15D01F
:104A7C00FB695A1CFA619B00BA6813447A69126884
:104A8C001A607B699B687B613B6901333B613B69C5
:104A9C00B3F57A7FDFDB02E000BF00E000BFBB694B
:104AAC000133BB61BB69022BCCDD7B68FA691A60F0
:104ABC00FB6818462037BD4680BD00BF5464000813
:104ACC0080B586B000AF786039607B68002B01D16F
:104ADC0000232FE03868FFF733FDF8607A68FB6835
:104AEC009B0013445B687B6100233B611BE07B688C
:104AFC001B697A6919461148FFF78EFD0346002B96
:104B0C0016D07B69002B01D1002313E07B691B6855
:104B1C003A689A4201D101230CE07B699B687B6166
:104B2C003B6901333B613B69B3F57A7FDFDB00E026
:104B3C0000BF002318461837BD4680BD5C640008D2
:104B4C0080B588B000AF78607B681B687B617B693F
:104B5C00002B01D1002361E07B691B683B613B6941
:104B6C00002B0BD17B691B69142279691846FFF75E
:104B7C0029FD7B6800221A6001234FE00023FB61B2
:104B8C003EE00023BB6130E07B6919697A69FB69FF
:104B9C009B0013445B681A462248FFF73DFD034611
:104BAC00002B27D07A69FB699B0013445B68002BB0
:104BBC0022D07A69FB699B0013445B68FB60FB683D
:104BCC009A687969FB699B000B445A607B691B6985
:104BDC000C22F9681846FFF7F5FC7B691B685A1E16
:104BEC007B691A60BB690133BB61BB69B3F57A7F22
:104BFC00CADB02E000BF00E000BFFB690133FB61D0
:104C0C00FB69022BBDDD7B691B691422796918468F
:104C1C00FFF7D8FC7B6800221A6001231846203766
:104C2C00BD4680BD6864000880B400AF024B1B68B1
:104C3C001846BD4680BC70477C32002080B584B0DD
:104C4C0000AF786039603B68002B01DC002319E071
:104C5C007B68002B06D00D4B5B68396878689847E9
:104C6C00034604E03B68184600F030FA0346FB604C
:104C7C00FB68002B05D0064B1A683B681344044AAA
:104C8C001360FB6818461037BD4680BD58000020E5
:104C9C008032002080B584B000AFF860B9607A60D3
:104CAC00BB68002B02D07B68002B01DC002312E0D8
:104CBC00FB68002B05D00A4B9B68B968F8689847CD
:104CCC0002E0B86800F00AFA064B1A687B68D31A3F
:104CDC00044A1360012318461037BD4680BD00BF3F
:104CEC005800002080320020B0B58AB004AFF860C4
:104CFC00B9607A607B68002B01D1012343E07B68AB
:104D0C007B61BB68002B14D17B69B3F1005F03D3CB
:104D1C007B691F4A934235D3F9681E4800F0D8FAD4
:104D2C001D4800F06FFB79681C4800F0D1FA002395
:104D3C0029E01B4B9D69BB687A6803926C4603F1B2
:104D4C00100207CA84E807000FCBA8470346002BC4
:104D5C0018D1F9680F4800F0BBFAB968114800F097
:104D6C00B7FABB681968BB681B68BA681269134448
:104D7C001A460D4800F0ACFA7968084800F0A8FA19
:104D8C00002300E0012318461837BD46B0BD00BF14
:104D9C0000500020B0630008C0630008E463000802
:104DAC0058000020F0630008FC63000880B584B054
:104DBC0000AF7860396014217868FFF73FFFF86026
:104DCC00FA6879681048FFF78FFF0346002B01D172
:104DDC00002314E0FB68002B01D100230FE0FB68DB
:104DEC007A681A61FB683A681A60FB6800229A605C
:104DFC00FB680022DA60FB6800225A60FB681846E8
:104E0C001037BD4680BD00BF7064000880B584B00B
:104E1C0000AF786039607B68002B01D1002335E04E
:104E2C007B681B6908211846FFF708FFF8607B6850
:104E3C001B69FA6819461748FFF756FF0346002B03
:104E4C0001D1002322E0FB68002B01D100231DE0DF
:104E5C00FB683A681A60FB6800225A607B685B68E2
:104E6C00002B06D17B68FA689A607B68FA68DA6076
:104E7C0006E07B68DB68FA685A607B68FA68DA607F
:104E8C007B685B685A1C7B685A607B6818461037D5
:104E9C00BD4680BD7464000880B584B000AF7860F6
:104EAC007B68002B01D1002326E07B685B68002B1C
:104EBC0001D1002320E07B689B68FB60FB681B68CA
:104ECC00BB60FB685A687B689A607B681B69082228
:104EDC00F9681846FFF7DEFE7B685B685A1E7B6834
:104EEC005A607B685B68002B05D17B6800229A6056
:104EFC007B680022DA60BB6818461037BD4680BD5F
:104F0C0080B483B000AF78607B68002B01D10023A4
:104F1C0008E07B685B68002B01D1002302E07B6812
:104F2C009B681B6818460C37BD4680BC704780B523
:104F3C0086B000AF78607B681B683B613B69002BD7
:104F4C0001D1002329E03B695B68FB60FB68002B07
:104F5C000BD13B691B69142239691846FFF79AFE7D
:104F6C007B6800221A60012317E000237B6105E0B7
:104F7C003869FFF791FF7B6901337B617A69FB68C4
:104F8C009A42F5DB3B691B69142239691846FFF715
:104F9C0081FE7B6800221A60012318461837BD4633
:104FAC0080BD80B485B000AF786039603B68002B61
:104FBC0001D1002323E07B68002B01D100231EE0EC
:104FCC007B685B68002B01D1002318E07B689B6831
:104FDC00FB600023BB600CE0FB681B683A689A42DC
:104FEC0001D101230BE0FB685B68FB60BB680133FC
:104FFC00BB607B685B68BA689A42EDDB002318469D
:10500C001437BD4680BC704780B584B000AF786063
:10501C007B68002B1ED07B681B68002B1CD07B6828
:10502C009B68FB600023BB600EE0FB68002B15D077
:10503C007B681B68FA68126810469847FB685B68C7
:10504C00FB60BB680133BB607B685B68BA689A42E3
:10505C00EBDB04E000BF02E000BF00E000BF103754
:10506C00BD4680BD80B400AF024B1B681846BD46E0
:10507C0080BC704780320020014B1868704700BF1D
:10508C00B804002070B500260C4D0D4C641BA41008
:10509C00A64209D101F0A6F800260A4D0A4C641B61
:1050AC00A410A64205D170BD55F8043B98470136B3
:1050BC00EEE755F8043B98470136F2E71465000813
:1050CC00146500081465000818650008024B0146B9
:1050DC00186800F089B800BFB8040020024B0146E4
:1050EC00186800F019B800BFB80400200A449142B7
:1050FC0000F1FF3300D1704710B511F8014B91420C
:10510C0003F8014FF9D110BD03460244934200D17C
:10511C00704703F8011BF9E738B50546002940D064
:10512C0051F8043C0C1F002BB8BFE41800F05EFCD7
:10513C001C4A136833B9636014602846BDE83840D4
:10514C0000F05ABCA34208D9206821188B4201BF39
:10515C0019685B6809182160EDE71A465B680BB1AA
:10516C00A342FAD911685018A0420BD1206801440F
:10517C00501883421160E0D118685B6801441160DB
:10518C005360DAE702D90C232B60D6E7206821188C
:10519C008B4201BF19685B68091821606360546019
:1051AC00CBE738BD8432002070B50E4E0C4631680A
:1051BC00054611B900F02EF930602146284600F062
:1051CC0029F9431C0AD0C41C24F00304A04207D0C4
:1051DC00211A284600F01EF9013001D14FF0FF349E
:1051EC00204670BD883200202DE9F041CD1C25F001
:1051FC00030508350C2D38BF0C25002D074601DBA7
:10520C00A94205D90C2300263B603046BDE8F0814D
:10521C002E4E00F0EBFB33681C4634BB2946384657
:10522C00FFF7C2FF431C04464DD134682646002EBE
:10523C0040D123683146384604EB030800F0EAF805
:10524C0080453AD1216803356D1A25F003050835E0
:10525C000C2D38BF0C2538462946FFF7A5FF013029
:10526C002BD023682B4423600EE02268521B1ED4E3
:10527C000B2A16D96119A342256018BF59606368BF
:10528C0008BF316062514B60384604F10B0600F0E8
:10529C00B3FB26F00706231DF21AB6D09B1BA350B6
:1052AC00B3E76268A3420CBF32605A60ECE7234656
:1052BC006468B2E734467668B9E70C2338463B603D
:1052CC0000F09AFBA1E72560DEE700BF84320020E6
:1052DC000FB40A4B13B51C6824B1A36913B920464B
:1052EC0000F07EFA05AB2046049AA168019300F009
:1052FC00B1FB02B0BDE8104004B07047B804002008
:10530C0038B5084B05461C6824B1A36913B920466F
:10531C0000F066FA29462046A268BDE8384000F045
:10532C005FBE00BFB804002070B50E46054618B12C
:10533C0083690BB900F054FAAB69AC6813B9284611
:10534C0000F04EFA2C4B9C4220D16C68636EDB074C
:10535C0005D4A389980502D4A06D00F0DFFAA389C7
:10536C0019071DD52369DBB1013EA36816F8011F8F
:10537C00013BA36039BB002B38DA22460A212846B0
:10538C0000F058F8013011D00A2511E01B4B9C425B
:10539C0001D1AC68DAE71A4B9C4208BFEC68D5E740
:1053AC002146284600F098F80028DDD04FF0FF3554
:1053BC00636EDA0705D4A3899B0502D4A06D00F0B7
:1053CC00AEFA284670BD002B04DAA2699A4206DCBC
:1053DC000A2904D023685A1C22601970C5E722469A
:1053EC00284600F027F80130BFD1DFE70A252368F3
:1053FC005A1C22601D70DBE7A0640008C064000822
:10540C0080640008024B01461868FFF78DBF00BF8F
:10541C00B804002038B50023054D044608462B601F
:10542C00FBF7B8F8431C02D12B6803B1236038BDDD
:10543C0090320020F8B50E461446054618B1836923
:10544C000BB900F0CDF9214B9C422BD16C68A369B0
:10545C00A360A3891A072FD523696BB3236920682E
:10546C00F6B2C01A63693746834204DC21462846EB
:10547C0000F022F930BBA3680130013BA360236824
:10548C005A1C22601E706369834204D0A389DB0717
:10549C0006D50A2E04D12146284600F00DF988B90C
:1054AC003846F8BD0A4B9C4201D1AC68CFE7094B9A
:1054BC009C4208BFEC68CAE72146284600F00CF86D
:1054CC000028CBD04FF0FF37EAE700BFA0640008FC
:1054DC00C064000880640008324B70B51D68064635
:1054EC000C4625B1AB6913B9284600F079F92E4B5F
:1054FC009C420FD16C68A389B4F90C2019072CD4E9
:10550C00DD0611D40923336042F040034FF0FF3025
:10551C00A3813EE0254B9C4201D1AC68EBE7244BC8
:10552C009C4208BFEC68E6E7580712D5616B41B1A5
:10553C0004F14403994202D03046FFF7EDFD0023FD
:10554C006363A38923F02403A3810023636023698D
:10555C002360A38943F00803A38123694BB9A38972
:10556C0003F42073B3F5007F03D02146304600F0DE
:10557C00FDF9A089B4F90C2010F001030AD0002326
:10558C00A36063695B42A361236943B910F0800097
:10559C00BAD170BD810758BF6369A360F4E70020DE
:1055AC00F7E700BFB8040020A0640008C06400083E
:1055BC00806400088A89F8B5054610070C4657D454
:1055CC004B68002B04DC0B6C002B01DC0020F8BDBD
:1055DC00E66A002EFAD0002312F480522F682B605A
:1055EC0032D0606DA3895A0705D56368C01A636B06
:1055FC000BB1236CC01A00230246E66A2846216AC6
:10560C00B047431CA38906D129681D292CD8294AE7
:10561C00CA40D60728D5002262602269D9042260CC
:10562C0004D5421C01D12B6803B96065616B2F60F6
:10563C000029CBD004F14403994202D02846FFF74D
:10564C006BFD00206063C2E7216A01232846B04746
:10565C00411CC7D12B68002BC4D01D2B01D0162B9D
:10566C0001D12F60B2E7A38943F04003A381AEE7D9
:10567C000F69002FAAD0930718BF00230E6808BF2C
:10568C004B69F61B0F608B60002E9FDD33463A464C
:10569C002846216AD4F828C0E047002806DCA389F4
:1056AC004FF0FF3043F04003A38190E70744361AD4
:1056BC00EAE700BF0100402038B50B6905460C46EF
:1056CC0013B90025284638BD18B183690BB900F011
:1056DC0087F8144B9C421BD16C68B4F90C30002B2E
:1056EC00EFD0626ED00704D4990502D4A06D00F0FF
:1056FC0015F928462146FFF75DFF636E0546DA076C
:10570C00E0D4A3899B05DDD4A06D00F008F9D9E79E
:10571C00054B9C4201D1AC68DFE7044B9C4208BFAF
:10572C00EC68DAE7A0640008C06400088064000834
:10573C00002310B50446C0E90033C0E9043383608C
:10574C0081814366C2818361194608225C30FFF770
:10575C00DBFC054B24626362044BA362044BE362E3
:10576C00044B236310BD00BF7D6000089F600008E0
:10577C00D7600008FB600008014900F0AFB800BF1B
:10578C00C5560008682270B54D1E55430E4605F1EE
:10579C007401FFF729FD044640B10021C0E9001651
:1057AC000C30A06005F16802FFF7AEFC204670BD1E
:1057BC00014800F0B3B800BF8D320020014800F062
:1057CC00AEB800BF8D320020014800F0A7B800BF72
:1057DC008E320020014800F0A2B800BF8E320020AB
:1057EC0010B50446FFF7F0FFA3691BB1BDE81040EC
:1057FC00FFF7F0BFC4E912332365134B134A1B6840
:10580C00A262A34208BF0123204608BFA36100F097
:10581C001FF86060204600F01BF8A060204600F0E6
:10582C0017F800220421E0606068FFF781FF012275
:10583C000921A068FFF77CFF02221221E068FFF724
:10584C0077FF0123A361D1E77C640008855700082A
:10585C00F8B50746FFF7ACFF1E4B1E68B36913B9CA
:10586C003046FFF7BDFF4836D6E90134013B03D57E
:10587C0033680BB33668F7E7B4F90C50D5B9164B4F
:10588C0004F15800E360656600F047F8FFF796FFF7
:10589C0008222946C4E90155C4E904552560A561CF
:1058AC0004F15C00FFF730FCC4E90D55C4E9125556
:1058BC002046F8BD6834D9E704213846FFF762FF6B
:1058CC00044630600028D5D1FFF778FF0C233B60ED
:1058DC00EEE700BF7C6400080100FFFF2DE9F843F0
:1058EC0006468846002700F14804D4E90195B9F131
:1058FC00010905D52468002CF7D13846BDE8F8839A
:10590C00AB89012B07D9B5F90E30013303D02946E9
:10591C003046C04707436835E9E770477047704722
:10592C0070B50E46B1F90E10144600291D4696B0FE
:10593C0008DA0022B6F90C302A601A0610D44FF49B
:10594C0080630EE06A4600F0F9FB0028F1DB019A57
:10595C0002F47042A2F500535A425A412A60EEE713
:10596C0040230020236016B070BD00008B8973B5F6
:10597C009D0706460C4607D504F1470323602361B7
:10598C000123636102B070BD6A4601ABFFF7C8FF2B
:10599C00009905463046FFF727FC48B9B4F90C309E
:1059AC009A05EFD423F0030343F00203A381E3E74A
:1059BC000D4BB362A389206043F08003A381009B4D
:1059CC0020616361019B5BB13046B4F90E1000F0AD
:1059DC00C7FB28B1A38923F0030343F00103A38180
:1059EC00A0890543A581CDE7855700080148FFF73D
:1059FC0095BF00BF8C3200200148FFF790BF00BF5D
:105A0C008C320020936810B4013B002B936007DAB2
:105A1C009469A34201DB0A2902D110BCFFF70ABD2D
:105A2C001368581C10601970084610BC7047F8B504
:105A3C0006460F461446D518AC4201D1002007E0AB
:105A4C003A46304614F8011BFFF7DCFF431CF3D138
:105A5C00F8BD00002DE9F04F0D4614469846064659
:105A6C009DB018B183690BB9FFF7BAFE894B9D4203
:105A7C001BD175686B6ED90705D4AB899A0502D416
:105A8C00A86DFFF74BFFAB891B0701D52B69EBB951
:105A9C0029463046FFF720FDC0B16B6EDC070ED5F2
:105AAC004FF0FF301DB0BDE8F08F7B4B9D4201D114
:105ABC00B568DFE7794B9D4208BFF568DAE7AB893B
:105ACC009805EDD4A86DFFF72AFFE9E700230993A9
